{
  "_format": "hh-sol-artifact-1",
  "contractName": "DataMarketplace",
  "sourceName": "blockchain/contracts/DataMarketplace.sol",
  "abi": [
    {
      "inputs": [],
      "stateMutability": "nonpayable",
      "type": "constructor"
    },
    {
      "anonymous": false,
      "inputs": [
        {
          "indexed": true,
          "internalType": "address",
          "name": "owner",
          "type": "address"
        },
        {
          "indexed": true,
          "internalType": "address",
          "name": "approved",
          "type": "address"
        },
        {
          "indexed": true,
          "internalType": "uint256",
          "name": "tokenId",
          "type": "uint256"
        }
      ],
      "name": "Approval",
      "type": "event"
    },
    {
      "anonymous": false,
      "inputs": [
        {
          "indexed": true,
          "internalType": "address",
          "name": "owner",
          "type": "address"
        },
        {
          "indexed": true,
          "internalType": "address",
          "name": "operator",
          "type": "address"
        },
        {
          "indexed": false,
          "internalType": "bool",
          "name": "approved",
          "type": "bool"
        }
      ],
      "name": "ApprovalForAll",
      "type": "event"
    },
    {
      "anonymous": false,
      "inputs": [
        {
          "indexed": false,
          "internalType": "uint256",
          "name": "_fromTokenId",
          "type": "uint256"
        },
        {
          "indexed": false,
          "internalType": "uint256",
          "name": "_toTokenId",
          "type": "uint256"
        }
      ],
      "name": "BatchMetadataUpdate",
      "type": "event"
    },
    {
      "anonymous": false,
      "inputs": [
        {
          "indexed": true,
          "internalType": "uint256",
          "name": "tokenId",
          "type": "uint256"
        },
        {
          "indexed": true,
          "internalType": "address",
          "name": "creator",
          "type": "address"
        },
        {
          "indexed": false,
          "internalType": "uint256",
          "name": "price",
          "type": "uint256"
        }
      ],
      "name": "DataSetCreated",
      "type": "event"
    },
    {
      "anonymous": false,
      "inputs": [
        {
          "indexed": true,
          "internalType": "uint256",
          "name": "tokenId",
          "type": "uint256"
        },
        {
          "indexed": true,
          "internalType": "address",
          "name": "buyer",
          "type": "address"
        },
        {
          "indexed": false,
          "internalType": "uint256",
          "name": "price",
          "type": "uint256"
        }
      ],
      "name": "DataSetPurchased",
      "type": "event"
    },
    {
      "anonymous": false,
      "inputs": [
        {
          "indexed": true,
          "internalType": "uint256",
          "name": "tokenId",
          "type": "uint256"
        },
        {
          "indexed": false,
          "internalType": "uint256",
          "name": "newPrice",
          "type": "uint256"
        }
      ],
      "name": "DataSetUpdated",
      "type": "event"
    },
    {
      "anonymous": false,
      "inputs": [
        {
          "indexed": false,
          "internalType": "uint256",
          "name": "_tokenId",
          "type": "uint256"
        }
      ],
      "name": "MetadataUpdate",
      "type": "event"
    },
    {
      "anonymous": false,
      "inputs": [
        {
          "indexed": true,
          "internalType": "address",
          "name": "previousOwner",
          "type": "address"
        },
        {
          "indexed": true,
          "internalType": "address",
          "name": "newOwner",
          "type": "address"
        }
      ],
      "name": "OwnershipTransferred",
      "type": "event"
    },
    {
      "anonymous": false,
      "inputs": [
        {
          "indexed": true,
          "internalType": "address",
          "name": "from",
          "type": "address"
        },
        {
          "indexed": true,
          "internalType": "address",
          "name": "to",
          "type": "address"
        },
        {
          "indexed": true,
          "internalType": "uint256",
          "name": "tokenId",
          "type": "uint256"
        }
      ],
      "name": "Transfer",
      "type": "event"
    },
    {
      "inputs": [
        {
          "internalType": "address",
          "name": "to",
          "type": "address"
        },
        {
          "internalType": "uint256",
          "name": "tokenId",
          "type": "uint256"
        }
      ],
      "name": "approve",
      "outputs": [],
      "stateMutability": "nonpayable",
      "type": "function"
    },
    {
      "inputs": [
        {
          "internalType": "address",
          "name": "owner",
          "type": "address"
        }
      ],
      "name": "balanceOf",
      "outputs": [
        {
          "internalType": "uint256",
          "name": "",
          "type": "uint256"
        }
      ],
      "stateMutability": "view",
      "type": "function"
    },
    {
      "inputs": [
        {
          "internalType": "string",
          "name": "title",
          "type": "string"
        },
        {
          "internalType": "string",
          "name": "description",
          "type": "string"
        },
        {
          "internalType": "string",
          "name": "category",
          "type": "string"
        },
        {
          "internalType": "string[]",
          "name": "tags",
          "type": "string[]"
        },
        {
          "internalType": "uint256",
          "name": "price",
          "type": "uint256"
        },
        {
          "internalType": "string",
          "name": "tokenURI",
          "type": "string"
        }
      ],
      "name": "createDataSet",
      "outputs": [
        {
          "internalType": "uint256",
          "name": "",
          "type": "uint256"
        }
      ],
      "stateMutability": "nonpayable",
      "type": "function"
    },
    {
      "inputs": [
        {
          "internalType": "uint256",
          "name": "",
          "type": "uint256"
        }
      ],
      "name": "dataSets",
      "outputs": [
        {
          "internalType": "uint256",
          "name": "tokenId",
          "type": "uint256"
        },
        {
          "internalType": "address",
          "name": "creator",
          "type": "address"
        },
        {
          "internalType": "address",
          "name": "currentOwner",
          "type": "address"
        },
        {
          "internalType": "uint256",
          "name": "price",
          "type": "uint256"
        },
        {
          "internalType": "string",
          "name": "title",
          "type": "string"
        },
        {
          "internalType": "string",
          "name": "description",
          "type": "string"
        },
        {
          "internalType": "string",
          "name": "category",
          "type": "string"
        },
        {
          "internalType": "bool",
          "name": "isActive",
          "type": "bool"
        },
        {
          "internalType": "uint256",
          "name": "createdAt",
          "type": "uint256"
        },
        {
          "internalType": "uint256",
          "name": "downloadCount",
          "type": "uint256"
        }
      ],
      "stateMutability": "view",
      "type": "function"
    },
    {
      "inputs": [],
      "name": "getAllActiveDataSets",
      "outputs": [
        {
          "components": [
            {
              "internalType": "uint256",
              "name": "tokenId",
              "type": "uint256"
            },
            {
              "internalType": "address",
              "name": "creator",
              "type": "address"
            },
            {
              "internalType": "address",
              "name": "currentOwner",
              "type": "address"
            },
            {
              "internalType": "uint256",
              "name": "price",
              "type": "uint256"
            },
            {
              "internalType": "string",
              "name": "title",
              "type": "string"
            },
            {
              "internalType": "string",
              "name": "description",
              "type": "string"
            },
            {
              "internalType": "string",
              "name": "category",
              "type": "string"
            },
            {
              "internalType": "string[]",
              "name": "tags",
              "type": "string[]"
            },
            {
              "internalType": "bool",
              "name": "isActive",
              "type": "bool"
            },
            {
              "internalType": "uint256",
              "name": "createdAt",
              "type": "uint256"
            },
            {
              "internalType": "uint256",
              "name": "downloadCount",
              "type": "uint256"
            }
          ],
          "internalType": "struct DataMarketplace.DataSet[]",
          "name": "",
          "type": "tuple[]"
        }
      ],
      "stateMutability": "view",
      "type": "function"
    },
    {
      "inputs": [
        {
          "internalType": "uint256",
          "name": "tokenId",
          "type": "uint256"
        }
      ],
      "name": "getApproved",
      "outputs": [
        {
          "internalType": "address",
          "name": "",
          "type": "address"
        }
      ],
      "stateMutability": "view",
      "type": "function"
    },
    {
      "inputs": [
        {
          "internalType": "uint256",
          "name": "tokenId",
          "type": "uint256"
        }
      ],
      "name": "getDataSet",
      "outputs": [
        {
          "components": [
            {
              "internalType": "uint256",
              "name": "tokenId",
              "type": "uint256"
            },
            {
              "internalType": "address",
              "name": "creator",
              "type": "address"
            },
            {
              "internalType": "address",
              "name": "currentOwner",
              "type": "address"
            },
            {
              "internalType": "uint256",
              "name": "price",
              "type": "uint256"
            },
            {
              "internalType": "string",
              "name": "title",
              "type": "string"
            },
            {
              "internalType": "string",
              "name": "description",
              "type": "string"
            },
            {
              "internalType": "string",
              "name": "category",
              "type": "string"
            },
            {
              "internalType": "string[]",
              "name": "tags",
              "type": "string[]"
            },
            {
              "internalType": "bool",
              "name": "isActive",
              "type": "bool"
            },
            {
              "internalType": "uint256",
              "name": "createdAt",
              "type": "uint256"
            },
            {
              "internalType": "uint256",
              "name": "downloadCount",
              "type": "uint256"
            }
          ],
          "internalType": "struct DataMarketplace.DataSet",
          "name": "",
          "type": "tuple"
        }
      ],
      "stateMutability": "view",
      "type": "function"
    },
    {
      "inputs": [],
      "name": "getTotalDataSets",
      "outputs": [
        {
          "internalType": "uint256",
          "name": "",
          "type": "uint256"
        }
      ],
      "stateMutability": "view",
      "type": "function"
    },
    {
      "inputs": [
        {
          "internalType": "address",
          "name": "user",
          "type": "address"
        }
      ],
      "name": "getUserDataSets",
      "outputs": [
        {
          "internalType": "uint256[]",
          "name": "",
          "type": "uint256[]"
        }
      ],
      "stateMutability": "view",
      "type": "function"
    },
    {
      "inputs": [
        {
          "internalType": "address",
          "name": "owner",
          "type": "address"
        },
        {
          "internalType": "address",
          "name": "operator",
          "type": "address"
        }
      ],
      "name": "isApprovedForAll",
      "outputs": [
        {
          "internalType": "bool",
          "name": "",
          "type": "bool"
        }
      ],
      "stateMutability": "view",
      "type": "function"
    },
    {
      "inputs": [],
      "name": "name",
      "outputs": [
        {
          "internalType": "string",
          "name": "",
          "type": "string"
        }
      ],
      "stateMutability": "view",
      "type": "function"
    },
    {
      "inputs": [],
      "name": "owner",
      "outputs": [
        {
          "internalType": "address",
          "name": "",
          "type": "address"
        }
      ],
      "stateMutability": "view",
      "type": "function"
    },
    {
      "inputs": [
        {
          "internalType": "uint256",
          "name": "tokenId",
          "type": "uint256"
        }
      ],
      "name": "ownerOf",
      "outputs": [
        {
          "internalType": "address",
          "name": "",
          "type": "address"
        }
      ],
      "stateMutability": "view",
      "type": "function"
    },
    {
      "inputs": [
        {
          "internalType": "uint256",
          "name": "tokenId",
          "type": "uint256"
        }
      ],
      "name": "purchaseDataSet",
      "outputs": [],
      "stateMutability": "payable",
      "type": "function"
    },
    {
      "inputs": [],
      "name": "renounceOwnership",
      "outputs": [],
      "stateMutability": "nonpayable",
      "type": "function"
    },
    {
      "inputs": [
        {
          "internalType": "address",
          "name": "from",
          "type": "address"
        },
        {
          "internalType": "address",
          "name": "to",
          "type": "address"
        },
        {
          "internalType": "uint256",
          "name": "tokenId",
          "type": "uint256"
        }
      ],
      "name": "safeTransferFrom",
      "outputs": [],
      "stateMutability": "nonpayable",
      "type": "function"
    },
    {
      "inputs": [
        {
          "internalType": "address",
          "name": "from",
          "type": "address"
        },
        {
          "internalType": "address",
          "name": "to",
          "type": "address"
        },
        {
          "internalType": "uint256",
          "name": "tokenId",
          "type": "uint256"
        },
        {
          "internalType": "bytes",
          "name": "data",
          "type": "bytes"
        }
      ],
      "name": "safeTransferFrom",
      "outputs": [],
      "stateMutability": "nonpayable",
      "type": "function"
    },
    {
      "inputs": [
        {
          "internalType": "address",
          "name": "operator",
          "type": "address"
        },
        {
          "internalType": "bool",
          "name": "approved",
          "type": "bool"
        }
      ],
      "name": "setApprovalForAll",
      "outputs": [],
      "stateMutability": "nonpayable",
      "type": "function"
    },
    {
      "inputs": [
        {
          "internalType": "bytes4",
          "name": "interfaceId",
          "type": "bytes4"
        }
      ],
      "name": "supportsInterface",
      "outputs": [
        {
          "internalType": "bool",
          "name": "",
          "type": "bool"
        }
      ],
      "stateMutability": "view",
      "type": "function"
    },
    {
      "inputs": [],
      "name": "symbol",
      "outputs": [
        {
          "internalType": "string",
          "name": "",
          "type": "string"
        }
      ],
      "stateMutability": "view",
      "type": "function"
    },
    {
      "inputs": [
        {
          "internalType": "uint256",
          "name": "tokenId",
          "type": "uint256"
        }
      ],
      "name": "toggleDataSetActive",
      "outputs": [],
      "stateMutability": "nonpayable",
      "type": "function"
    },
    {
      "inputs": [
        {
          "internalType": "uint256",
          "name": "tokenId",
          "type": "uint256"
        }
      ],
      "name": "tokenURI",
      "outputs": [
        {
          "internalType": "string",
          "name": "",
          "type": "string"
        }
      ],
      "stateMutability": "view",
      "type": "function"
    },
    {
      "inputs": [
        {
          "internalType": "address",
          "name": "from",
          "type": "address"
        },
        {
          "internalType": "address",
          "name": "to",
          "type": "address"
        },
        {
          "internalType": "uint256",
          "name": "tokenId",
          "type": "uint256"
        }
      ],
      "name": "transferFrom",
      "outputs": [],
      "stateMutability": "nonpayable",
      "type": "function"
    },
    {
      "inputs": [
        {
          "internalType": "address",
          "name": "newOwner",
          "type": "address"
        }
      ],
      "name": "transferOwnership",
      "outputs": [],
      "stateMutability": "nonpayable",
      "type": "function"
    },
    {
      "inputs": [
        {
          "internalType": "uint256",
          "name": "tokenId",
          "type": "uint256"
        },
        {
          "internalType": "uint256",
          "name": "newPrice",
          "type": "uint256"
        }
      ],
      "name": "updateDataSetPrice",
      "outputs": [],
      "stateMutability": "nonpayable",
      "type": "function"
    },
    {
      "inputs": [
        {
          "internalType": "address",
          "name": "",
          "type": "address"
        },
        {
          "internalType": "uint256",
          "name": "",
          "type": "uint256"
        }
      ],
      "name": "userDataSets",
      "outputs": [
        {
          "internalType": "uint256",
          "name": "",
          "type": "uint256"
        }
      ],
      "stateMutability": "view",
      "type": "function"
    }
  ],
  "bytecode": "0x60806040523480156200001157600080fd5b506040518060400160405280601281526020017f426c6f636b4d61726b65744149204461746100000000000000000000000000008152506040518060400160405280600481526020017f424d41440000000000000000000000000000000000000000000000000000000081525081600090816200008f91906200041a565b508060019081620000a191906200041a565b505050620000c4620000b8620000d260201b60201c565b620000da60201b60201c565b600160088190555062000501565b600033905090565b6000600760009054906101000a900473ffffffffffffffffffffffffffffffffffffffff16905081600760006101000a81548173ffffffffffffffffffffffffffffffffffffffff021916908373ffffffffffffffffffffffffffffffffffffffff1602179055508173ffffffffffffffffffffffffffffffffffffffff168173ffffffffffffffffffffffffffffffffffffffff167f8be0079c531659141344cd1fd0a4f28419497f9722a3daafe3b4186f6b6457e060405160405180910390a35050565b600081519050919050565b7f4e487b7100000000000000000000000000000000000000000000000000000000600052604160045260246000fd5b7f4e487b7100000000000000000000000000000000000000000000000000000000600052602260045260246000fd5b600060028204905060018216806200022257607f821691505b602082108103620002385762000237620001da565b5b50919050565b60008190508160005260206000209050919050565b60006020601f8301049050919050565b600082821b905092915050565b600060088302620002a27fffffffffffffffffffffffffffffffffffffffffffffffffffffffffffffffff8262000263565b620002ae868362000263565b95508019841693508086168417925050509392505050565b6000819050919050565b6000819050919050565b6000620002fb620002f5620002ef84620002c6565b620002d0565b620002c6565b9050919050565b6000819050919050565b6200031783620002da565b6200032f620003268262000302565b84845462000270565b825550505050565b600090565b6200034662000337565b620003538184846200030c565b505050565b5b818110156200037b576200036f6000826200033c565b60018101905062000359565b5050565b601f821115620003ca5762000394816200023e565b6200039f8462000253565b81016020851015620003af578190505b620003c7620003be8562000253565b83018262000358565b50505b505050565b600082821c905092915050565b6000620003ef60001984600802620003cf565b1980831691505092915050565b60006200040a8383620003dc565b9150826002028217905092915050565b6200042582620001a0565b67ffffffffffffffff811115620004415762000440620001ab565b5b6200044d825462000209565b6200045a8282856200037f565b600060209050601f8311600181146200049257600084156200047d578287015190505b620004898582620003fc565b865550620004f9565b601f198416620004a2866200023e565b60005b82811015620004cc57848901518255600182019150602085019450602081019050620004a5565b86831015620004ec5784890151620004e8601f891682620003dc565b8355505b6001600288020188555050505b505050505050565b615a9080620005116000396000f3fe6080604052600436106101815760003560e01c80638da5cb5b116100d1578063b88d4fde1161008a578063d78e392e11610064578063d78e392e146105b4578063e985e9c5146105dd578063f2fde38b1461061a578063f67ee3d61461064357610181565b8063b88d4fde14610511578063bdaac0561461053a578063c87b56dd1461057757610181565b80638da5cb5b1461040e5780638e182e8e1461043957806395a97ccb1461047657806395d89b41146104a1578063a22cb465146104cc578063a6a37136146104f557610181565b806323b872dd1161013e57806351d5e1e01161011857806351d5e1e0146103405780636352211e1461037d57806370a08231146103ba578063715018a6146103f757610181565b806323b872dd146102c357806327a7b486146102ec57806342842e0e1461031757610181565b806301ffc9a71461018657806306fdde03146101c3578063081812fc146101ee578063095ea7b31461022b57806313f53f621461025457806319c82b261461029a575b600080fd5b34801561019257600080fd5b506101ad60048036038101906101a89190613907565b610680565b6040516101ba919061394f565b60405180910390f35b3480156101cf57600080fd5b506101d8610692565b6040516101e591906139fa565b60405180910390f35b3480156101fa57600080fd5b5061021560048036038101906102109190613a52565b610724565b6040516102229190613ac0565b60405180910390f35b34801561023757600080fd5b50610252600480360381019061024d9190613b07565b61076a565b005b34801561026057600080fd5b5061027b60048036038101906102769190613a52565b610881565b6040516102919a99989796959493929190613b56565b60405180910390f35b3480156102a657600080fd5b506102c160048036038101906102bc9190613a52565b610aba565b005b3480156102cf57600080fd5b506102ea60048036038101906102e59190613c07565b610bfb565b005b3480156102f857600080fd5b50610301610c5b565b60405161030e9190613c5a565b60405180910390f35b34801561032357600080fd5b5061033e60048036038101906103399190613c07565b610c65565b005b34801561034c57600080fd5b5061036760048036038101906103629190613b07565b610c85565b6040516103749190613c5a565b60405180910390f35b34801561038957600080fd5b506103a4600480360381019061039f9190613a52565b610cb6565b6040516103b19190613ac0565b60405180910390f35b3480156103c657600080fd5b506103e160048036038101906103dc9190613c75565b610d3c565b6040516103ee9190613c5a565b60405180910390f35b34801561040357600080fd5b5061040c610df3565b005b34801561041a57600080fd5b50610423610e07565b6040516104309190613ac0565b60405180910390f35b34801561044557600080fd5b50610460600480360381019061045b9190613ebd565b610e31565b60405161046d9190613c5a565b60405180910390f35b34801561048257600080fd5b5061048b611289565b60405161049891906142d5565b60405180910390f35b3480156104ad57600080fd5b506104b6611765565b6040516104c391906139fa565b60405180910390f35b3480156104d857600080fd5b506104f360048036038101906104ee9190614323565b6117f7565b005b61050f600480360381019061050a9190613a52565b61180d565b005b34801561051d57600080fd5b5061053860048036038101906105339190614404565b611cd1565b005b34801561054657600080fd5b50610561600480360381019061055c9190613a52565b611d33565b60405161056e919061458b565b60405180910390f35b34801561058357600080fd5b5061059e60048036038101906105999190613a52565b612127565b6040516105ab91906139fa565b60405180910390f35b3480156105c057600080fd5b506105db60048036038101906105d691906145ad565b612139565b005b3480156105e957600080fd5b5061060460048036038101906105ff91906145ed565b6122bf565b604051610611919061394f565b60405180910390f35b34801561062657600080fd5b50610641600480360381019061063c9190613c75565b612353565b005b34801561064f57600080fd5b5061066a60048036038101906106659190613c75565b6123d6565b60405161067791906146dc565b60405180910390f35b600061068b8261246d565b9050919050565b6060600080546106a19061472d565b80601f01602080910402602001604051908101604052809291908181526020018280546106cd9061472d565b801561071a5780601f106106ef5761010080835404028352916020019161071a565b820191906000526020600020905b8154815290600101906020018083116106fd57829003601f168201915b5050505050905090565b600061072f826124ce565b6004600083815260200190815260200160002060009054906101000a900473ffffffffffffffffffffffffffffffffffffffff169050919050565b600061077582610cb6565b90508073ffffffffffffffffffffffffffffffffffffffff168373ffffffffffffffffffffffffffffffffffffffff16036107e5576040517f08c379a00000000000000000000000000000000000000000000000000000000081526004016107dc906147d0565b60405180910390fd5b8073ffffffffffffffffffffffffffffffffffffffff16610804612519565b73ffffffffffffffffffffffffffffffffffffffff16148061083357506108328161082d612519565b6122bf565b5b610872576040517f08c379a000000000000000000000000000000000000000000000000000000000815260040161086990614862565b60405180910390fd5b61087c8383612521565b505050565b600a6020528060005260406000206000915090508060000154908060010160009054906101000a900473ffffffffffffffffffffffffffffffffffffffff16908060020160009054906101000a900473ffffffffffffffffffffffffffffffffffffffff16908060030154908060040180546108fc9061472d565b80601f01602080910402602001604051908101604052809291908181526020018280546109289061472d565b80156109755780601f1061094a57610100808354040283529160200191610975565b820191906000526020600020905b81548152906001019060200180831161095857829003601f168201915b50505050509080600501805461098a9061472d565b80601f01602080910402602001604051908101604052809291908181526020018280546109b69061472d565b8015610a035780601f106109d857610100808354040283529160200191610a03565b820191906000526020600020905b8154815290600101906020018083116109e657829003601f168201915b505050505090806006018054610a189061472d565b80601f0160208091040260200160405190810160405280929190818152602001828054610a449061472d565b8015610a915780601f10610a6657610100808354040283529160200191610a91565b820191906000526020600020905b815481529060010190602001808311610a7457829003601f168201915b5050505050908060080160009054906101000a900460ff169080600901549080600a015490508a565b610ac3816125da565b610b02576040517f08c379a0000000000000000000000000000000000000000000000000000000008152600401610af9906148ce565b60405180910390fd5b600a600082815260200190815260200160002060020160009054906101000a900473ffffffffffffffffffffffffffffffffffffffff1673ffffffffffffffffffffffffffffffffffffffff163373ffffffffffffffffffffffffffffffffffffffff1614610ba6576040517f08c379a0000000000000000000000000000000000000000000000000000000008152600401610b9d90614960565b60405180910390fd5b600a600082815260200190815260200160002060080160009054906101000a900460ff1615600a600083815260200190815260200160002060080160006101000a81548160ff02191690831515021790555050565b610c0c610c06612519565b8261261b565b610c4b576040517f08c379a0000000000000000000000000000000000000000000000000000000008152600401610c42906149f2565b60405180910390fd5b610c568383836126b0565b505050565b6000600954905090565b610c8083838360405180602001604052806000815250611cd1565b505050565b600b6020528160005260406000208181548110610ca157600080fd5b90600052602060002001600091509150505481565b600080610cc2836129a9565b9050600073ffffffffffffffffffffffffffffffffffffffff168173ffffffffffffffffffffffffffffffffffffffff1603610d33576040517f08c379a0000000000000000000000000000000000000000000000000000000008152600401610d2a90614a5e565b60405180910390fd5b80915050919050565b60008073ffffffffffffffffffffffffffffffffffffffff168273ffffffffffffffffffffffffffffffffffffffff1603610dac576040517f08c379a0000000000000000000000000000000000000000000000000000000008152600401610da390614af0565b60405180910390fd5b600360008373ffffffffffffffffffffffffffffffffffffffff1673ffffffffffffffffffffffffffffffffffffffff168152602001908152602001600020549050919050565b610dfb6129e6565b610e056000612a64565b565b6000600760009054906101000a900473ffffffffffffffffffffffffffffffffffffffff16905090565b6000808311610e75576040517f08c379a0000000000000000000000000000000000000000000000000000000008152600401610e6c90614b5c565b60405180910390fd5b6000875111610eb9576040517f08c379a0000000000000000000000000000000000000000000000000000000008152600401610eb090614bc8565b60405180910390fd5b6000865111610efd576040517f08c379a0000000000000000000000000000000000000000000000000000000008152600401610ef490614c34565b60405180910390fd5b6000855111610f41576040517f08c379a0000000000000000000000000000000000000000000000000000000008152600401610f3890614ca0565b60405180910390fd5b6000825111610f85576040517f08c379a0000000000000000000000000000000000000000000000000000000008152600401610f7c90614d0c565b60405180910390fd5b6000845111610fc9576040517f08c379a0000000000000000000000000000000000000000000000000000000008152600401610fc090614d78565b60405180910390fd5b60096000815480929190610fdc90614dc7565b919050555060006009549050610ff23382612b2a565b610ffc8184612b48565b6040518061016001604052808281526020013373ffffffffffffffffffffffffffffffffffffffff1681526020013373ffffffffffffffffffffffffffffffffffffffff1681526020018581526020018981526020018881526020018781526020018681526020016001151581526020014281526020016000815250600a60008381526020019081526020016000206000820151816000015560208201518160010160006101000a81548173ffffffffffffffffffffffffffffffffffffffff021916908373ffffffffffffffffffffffffffffffffffffffff16021790555060408201518160020160006101000a81548173ffffffffffffffffffffffffffffffffffffffff021916908373ffffffffffffffffffffffffffffffffffffffff1602179055506060820151816003015560808201518160040190816111429190614fbb565b5060a08201518160050190816111589190614fbb565b5060c082015181600601908161116e9190614fbb565b5060e082015181600701908051906020019061118b929190613739565b506101008201518160080160006101000a81548160ff021916908315150217905550610120820151816009015561014082015181600a0155905050600b60003373ffffffffffffffffffffffffffffffffffffffff1673ffffffffffffffffffffffffffffffffffffffff1681526020019081526020016000208190806001815401808255809150506001900390600052602060002001600090919091909150553373ffffffffffffffffffffffffffffffffffffffff16817f0935170fe263920de8bb6a93fcc9f2a1556490d303ece325fc441608129a93e2866040516112739190613c5a565b60405180910390a3809150509695505050505050565b606060006009549050600080600190505b8281116112ec57600a600082815260200190815260200160002060080160009054906101000a900460ff16156112d95781806112d590614dc7565b9250505b80806112e490614dc7565b91505061129a565b5060008167ffffffffffffffff81111561130957611308613cac565b5b60405190808252806020026020018201604052801561134257816020015b61132f613792565b8152602001906001900390816113275790505b509050600080600190505b84811161175a57600a600082815260200190815260200160002060080160009054906101000a900460ff161561174757600a600082815260200190815260200160002060405180610160016040529081600082015481526020016001820160009054906101000a900473ffffffffffffffffffffffffffffffffffffffff1673ffffffffffffffffffffffffffffffffffffffff1673ffffffffffffffffffffffffffffffffffffffff1681526020016002820160009054906101000a900473ffffffffffffffffffffffffffffffffffffffff1673ffffffffffffffffffffffffffffffffffffffff1673ffffffffffffffffffffffffffffffffffffffff1681526020016003820154815260200160048201805461146c9061472d565b80601f01602080910402602001604051908101604052809291908181526020018280546114989061472d565b80156114e55780601f106114ba576101008083540402835291602001916114e5565b820191906000526020600020905b8154815290600101906020018083116114c857829003601f168201915b505050505081526020016005820180546114fe9061472d565b80601f016020809104026020016040519081016040528092919081815260200182805461152a9061472d565b80156115775780601f1061154c57610100808354040283529160200191611577565b820191906000526020600020905b81548152906001019060200180831161155a57829003601f168201915b505050505081526020016006820180546115909061472d565b80601f01602080910402602001604051908101604052809291908181526020018280546115bc9061472d565b80156116095780601f106115de57610100808354040283529160200191611609565b820191906000526020600020905b8154815290600101906020018083116115ec57829003601f168201915b5050505050815260200160078201805480602002602001604051908101604052809291908181526020016000905b828210156116e35783829060005260206000200180546116569061472d565b80601f01602080910402602001604051908101604052809291908181526020018280546116829061472d565b80156116cf5780601f106116a4576101008083540402835291602001916116cf565b820191906000526020600020905b8154815290600101906020018083116116b257829003601f168201915b505050505081526020019060010190611637565b5050505081526020016008820160009054906101000a900460ff1615151515815260200160098201548152602001600a8201548152505083838151811061172d5761172c61508d565b5b6020026020010181905250818061174390614dc7565b9250505b808061175290614dc7565b91505061134d565b508194505050505090565b6060600180546117749061472d565b80601f01602080910402602001604051908101604052809291908181526020018280546117a09061472d565b80156117ed5780601f106117c2576101008083540402835291602001916117ed565b820191906000526020600020905b8154815290600101906020018083116117d057829003601f168201915b5050505050905090565b611809611802612519565b8383612bec565b5050565b611815612d58565b61181e816125da565b61185d576040517f08c379a0000000000000000000000000000000000000000000000000000000008152600401611854906148ce565b60405180910390fd5b600a600082815260200190815260200160002060080160009054906101000a900460ff166118c0576040517f08c379a00000000000000000000000000000000000000000000000000000000081526004016118b790615108565b60405180910390fd5b600a600082815260200190815260200160002060030154341015611919576040517f08c379a000000000000000000000000000000000000000000000000000000000815260040161191090615174565b60405180910390fd5b600a600082815260200190815260200160002060020160009054906101000a900473ffffffffffffffffffffffffffffffffffffffff1673ffffffffffffffffffffffffffffffffffffffff163373ffffffffffffffffffffffffffffffffffffffff16036119bd576040517f08c379a00000000000000000000000000000000000000000000000000000000081526004016119b4906151e0565b60405180910390fd5b6000600a600083815260200190815260200160002060020160009054906101000a900473ffffffffffffffffffffffffffffffffffffffff1690506000600a600084815260200190815260200160002060030154905060008273ffffffffffffffffffffffffffffffffffffffff1682604051611a3990615231565b60006040518083038185875af1925050503d8060008114611a76576040519150601f19603f3d011682016040523d82523d6000602084013e611a7b565b606091505b5050905080611abf576040517f08c379a0000000000000000000000000000000000000000000000000000000008152600401611ab690615292565b60405180910390fd5b81341115611b805760003373ffffffffffffffffffffffffffffffffffffffff168334611aec91906152b2565b604051611af890615231565b60006040518083038185875af1925050503d8060008114611b35576040519150601f19603f3d011682016040523d82523d6000602084013e611b3a565b606091505b5050905080611b7e576040517f08c379a0000000000000000000000000000000000000000000000000000000008152600401611b7590615332565b60405180910390fd5b505b611b8b8333866126b0565b33600a600086815260200190815260200160002060020160006101000a81548173ffffffffffffffffffffffffffffffffffffffff021916908373ffffffffffffffffffffffffffffffffffffffff1602179055506001600a6000868152602001908152602001600020600a016000828254611c079190615352565b92505081905550600b60003373ffffffffffffffffffffffffffffffffffffffff1673ffffffffffffffffffffffffffffffffffffffff1681526020019081526020016000208490806001815401808255809150506001900390600052602060002001600090919091909150553373ffffffffffffffffffffffffffffffffffffffff16847f523ae89ddaa93009075d4f7d210e2a677a5ca103476f0baf3f894f5fa7bd06da84604051611cbb9190613c5a565b60405180910390a3505050611cce612da7565b50565b611ce2611cdc612519565b8361261b565b611d21576040517f08c379a0000000000000000000000000000000000000000000000000000000008152600401611d18906149f2565b60405180910390fd5b611d2d84848484612db1565b50505050565b611d3b613792565b611d44826125da565b611d83576040517f08c379a0000000000000000000000000000000000000000000000000000000008152600401611d7a906148ce565b60405180910390fd5b600a600083815260200190815260200160002060405180610160016040529081600082015481526020016001820160009054906101000a900473ffffffffffffffffffffffffffffffffffffffff1673ffffffffffffffffffffffffffffffffffffffff1673ffffffffffffffffffffffffffffffffffffffff1681526020016002820160009054906101000a900473ffffffffffffffffffffffffffffffffffffffff1673ffffffffffffffffffffffffffffffffffffffff1673ffffffffffffffffffffffffffffffffffffffff16815260200160038201548152602001600482018054611e729061472d565b80601f0160208091040260200160405190810160405280929190818152602001828054611e9e9061472d565b8015611eeb5780601f10611ec057610100808354040283529160200191611eeb565b820191906000526020600020905b815481529060010190602001808311611ece57829003601f168201915b50505050508152602001600582018054611f049061472d565b80601f0160208091040260200160405190810160405280929190818152602001828054611f309061472d565b8015611f7d5780601f10611f5257610100808354040283529160200191611f7d565b820191906000526020600020905b815481529060010190602001808311611f6057829003601f168201915b50505050508152602001600682018054611f969061472d565b80601f0160208091040260200160405190810160405280929190818152602001828054611fc29061472d565b801561200f5780601f10611fe45761010080835404028352916020019161200f565b820191906000526020600020905b815481529060010190602001808311611ff257829003601f168201915b5050505050815260200160078201805480602002602001604051908101604052809291908181526020016000905b828210156120e957838290600052602060002001805461205c9061472d565b80601f01602080910402602001604051908101604052809291908181526020018280546120889061472d565b80156120d55780601f106120aa576101008083540402835291602001916120d5565b820191906000526020600020905b8154815290600101906020018083116120b857829003601f168201915b50505050508152602001906001019061203d565b5050505081526020016008820160009054906101000a900460ff1615151515815260200160098201548152602001600a820154815250509050919050565b606061213282612e0d565b9050919050565b612142826125da565b612181576040517f08c379a0000000000000000000000000000000000000000000000000000000008152600401612178906148ce565b60405180910390fd5b600a600083815260200190815260200160002060020160009054906101000a900473ffffffffffffffffffffffffffffffffffffffff1673ffffffffffffffffffffffffffffffffffffffff163373ffffffffffffffffffffffffffffffffffffffff1614612225576040517f08c379a000000000000000000000000000000000000000000000000000000000815260040161221c906153d2565b60405180910390fd5b60008111612268576040517f08c379a000000000000000000000000000000000000000000000000000000000815260040161225f90614b5c565b60405180910390fd5b80600a600084815260200190815260200160002060030181905550817f01cc3c5ae06f0d018d71d53482b7476072480cf5d22143e98595e5e6c47395b8826040516122b39190613c5a565b60405180910390a25050565b6000600560008473ffffffffffffffffffffffffffffffffffffffff1673ffffffffffffffffffffffffffffffffffffffff16815260200190815260200160002060008373ffffffffffffffffffffffffffffffffffffffff1673ffffffffffffffffffffffffffffffffffffffff16815260200190815260200160002060009054906101000a900460ff16905092915050565b61235b6129e6565b600073ffffffffffffffffffffffffffffffffffffffff168173ffffffffffffffffffffffffffffffffffffffff16036123ca576040517f08c379a00000000000000000000000000000000000000000000000000000000081526004016123c190615464565b60405180910390fd5b6123d381612a64565b50565b6060600b60008373ffffffffffffffffffffffffffffffffffffffff1673ffffffffffffffffffffffffffffffffffffffff16815260200190815260200160002080548060200260200160405190810160405280929190818152602001828054801561246157602002820191906000526020600020905b81548152602001906001019080831161244d575b50505050509050919050565b6000634906490660e01b7bffffffffffffffffffffffffffffffffffffffffffffffffffffffff1916827bffffffffffffffffffffffffffffffffffffffffffffffffffffffff191614806124c757506124c682612f1f565b5b9050919050565b6124d7816125da565b612516576040517f08c379a000000000000000000000000000000000000000000000000000000000815260040161250d90614a5e565b60405180910390fd5b50565b600033905090565b816004600083815260200190815260200160002060006101000a81548173ffffffffffffffffffffffffffffffffffffffff021916908373ffffffffffffffffffffffffffffffffffffffff160217905550808273ffffffffffffffffffffffffffffffffffffffff1661259483610cb6565b73ffffffffffffffffffffffffffffffffffffffff167f8c5be1e5ebec7d5bd14f71427d1e84f3dd0314c0f7b2291e5b200ac8c7c3b92560405160405180910390a45050565b60008073ffffffffffffffffffffffffffffffffffffffff166125fc836129a9565b73ffffffffffffffffffffffffffffffffffffffff1614159050919050565b60008061262783610cb6565b90508073ffffffffffffffffffffffffffffffffffffffff168473ffffffffffffffffffffffffffffffffffffffff161480612669575061266881856122bf565b5b806126a757508373ffffffffffffffffffffffffffffffffffffffff1661268f84610724565b73ffffffffffffffffffffffffffffffffffffffff16145b91505092915050565b8273ffffffffffffffffffffffffffffffffffffffff166126d082610cb6565b73ffffffffffffffffffffffffffffffffffffffff1614612726576040517f08c379a000000000000000000000000000000000000000000000000000000000815260040161271d906154f6565b60405180910390fd5b600073ffffffffffffffffffffffffffffffffffffffff168273ffffffffffffffffffffffffffffffffffffffff1603612795576040517f08c379a000000000000000000000000000000000000000000000000000000000815260040161278c90615588565b60405180910390fd5b6127a28383836001613001565b8273ffffffffffffffffffffffffffffffffffffffff166127c282610cb6565b73ffffffffffffffffffffffffffffffffffffffff1614612818576040517f08c379a000000000000000000000000000000000000000000000000000000000815260040161280f906154f6565b60405180910390fd5b6004600082815260200190815260200160002060006101000a81549073ffffffffffffffffffffffffffffffffffffffff02191690556001600360008573ffffffffffffffffffffffffffffffffffffffff1673ffffffffffffffffffffffffffffffffffffffff168152602001908152602001600020600082825403925050819055506001600360008473ffffffffffffffffffffffffffffffffffffffff1673ffffffffffffffffffffffffffffffffffffffff16815260200190815260200160002060008282540192505081905550816002600083815260200190815260200160002060006101000a81548173ffffffffffffffffffffffffffffffffffffffff021916908373ffffffffffffffffffffffffffffffffffffffff160217905550808273ffffffffffffffffffffffffffffffffffffffff168473ffffffffffffffffffffffffffffffffffffffff167fddf252ad1be2c89b69c2b068fc378daa952ba7f163c4a11628f55a4df523b3ef60405160405180910390a46129a48383836001613007565b505050565b60006002600083815260200190815260200160002060009054906101000a900473ffffffffffffffffffffffffffffffffffffffff169050919050565b6129ee612519565b73ffffffffffffffffffffffffffffffffffffffff16612a0c610e07565b73ffffffffffffffffffffffffffffffffffffffff1614612a62576040517f08c379a0000000000000000000000000000000000000000000000000000000008152600401612a59906155f4565b60405180910390fd5b565b6000600760009054906101000a900473ffffffffffffffffffffffffffffffffffffffff16905081600760006101000a81548173ffffffffffffffffffffffffffffffffffffffff021916908373ffffffffffffffffffffffffffffffffffffffff1602179055508173ffffffffffffffffffffffffffffffffffffffff168173ffffffffffffffffffffffffffffffffffffffff167f8be0079c531659141344cd1fd0a4f28419497f9722a3daafe3b4186f6b6457e060405160405180910390a35050565b612b4482826040518060200160405280600081525061300d565b5050565b612b51826125da565b612b90576040517f08c379a0000000000000000000000000000000000000000000000000000000008152600401612b8790615686565b60405180910390fd5b80600660008481526020019081526020016000209081612bb09190614fbb565b507ff8e1a15aba9398e019f0b49df1a4fde98ee17ae345cb5f6b5e2c27f5033e8ce782604051612be09190613c5a565b60405180910390a15050565b8173ffffffffffffffffffffffffffffffffffffffff168373ffffffffffffffffffffffffffffffffffffffff1603612c5a576040517f08c379a0000000000000000000000000000000000000000000000000000000008152600401612c51906156f2565b60405180910390fd5b80600560008573ffffffffffffffffffffffffffffffffffffffff1673ffffffffffffffffffffffffffffffffffffffff16815260200190815260200160002060008473ffffffffffffffffffffffffffffffffffffffff1673ffffffffffffffffffffffffffffffffffffffff16815260200190815260200160002060006101000a81548160ff0219169083151502179055508173ffffffffffffffffffffffffffffffffffffffff168373ffffffffffffffffffffffffffffffffffffffff167f17307eab39ab6107e8899845ad3d59bd9653f200f220920489ca2b5937696c3183604051612d4b919061394f565b60405180910390a3505050565b600260085403612d9d576040517f08c379a0000000000000000000000000000000000000000000000000000000008152600401612d949061575e565b60405180910390fd5b6002600881905550565b6001600881905550565b612dbc8484846126b0565b612dc884848484613068565b612e07576040517f08c379a0000000000000000000000000000000000000000000000000000000008152600401612dfe906157f0565b60405180910390fd5b50505050565b6060612e18826124ce565b6000600660008481526020019081526020016000208054612e389061472d565b80601f0160208091040260200160405190810160405280929190818152602001828054612e649061472d565b8015612eb15780601f10612e8657610100808354040283529160200191612eb1565b820191906000526020600020905b815481529060010190602001808311612e9457829003601f168201915b505050505090506000612ec26131ef565b90506000815103612ed7578192505050612f1a565b600082511115612f0c578082604051602001612ef492919061584c565b60405160208183030381529060405292505050612f1a565b612f1584613206565b925050505b919050565b60007f80ac58cd000000000000000000000000000000000000000000000000000000007bffffffffffffffffffffffffffffffffffffffffffffffffffffffff1916827bffffffffffffffffffffffffffffffffffffffffffffffffffffffff19161480612fea57507f5b5e139f000000000000000000000000000000000000000000000000000000007bffffffffffffffffffffffffffffffffffffffffffffffffffffffff1916827bffffffffffffffffffffffffffffffffffffffffffffffffffffffff1916145b80612ffa5750612ff98261326e565b5b9050919050565b50505050565b50505050565b61301783836132d8565b6130246000848484613068565b613063576040517f08c379a000000000000000000000000000000000000000000000000000000000815260040161305a906157f0565b60405180910390fd5b505050565b60006130898473ffffffffffffffffffffffffffffffffffffffff166134f5565b156131e2578373ffffffffffffffffffffffffffffffffffffffff1663150b7a026130b2612519565b8786866040518563ffffffff1660e01b81526004016130d494939291906158c5565b6020604051808303816000875af192505050801561311057506040513d601f19601f8201168201806040525081019061310d9190615926565b60015b613192573d8060008114613140576040519150601f19603f3d011682016040523d82523d6000602084013e613145565b606091505b50600081510361318a576040517f08c379a0000000000000000000000000000000000000000000000000000000008152600401613181906157f0565b60405180910390fd5b805181602001fd5b63150b7a0260e01b7bffffffffffffffffffffffffffffffffffffffffffffffffffffffff1916817bffffffffffffffffffffffffffffffffffffffffffffffffffffffff1916149150506131e7565b600190505b949350505050565b606060405180602001604052806000815250905090565b6060613211826124ce565b600061321b6131ef565b9050600081511161323b5760405180602001604052806000815250613266565b8061324584613518565b60405160200161325692919061584c565b6040516020818303038152906040525b915050919050565b60007f01ffc9a7000000000000000000000000000000000000000000000000000000007bffffffffffffffffffffffffffffffffffffffffffffffffffffffff1916827bffffffffffffffffffffffffffffffffffffffffffffffffffffffff1916149050919050565b600073ffffffffffffffffffffffffffffffffffffffff168273ffffffffffffffffffffffffffffffffffffffff1603613347576040517f08c379a000000000000000000000000000000000000000000000000000000000815260040161333e9061599f565b60405180910390fd5b613350816125da565b15613390576040517f08c379a000000000000000000000000000000000000000000000000000000000815260040161338790615a0b565b60405180910390fd5b61339e600083836001613001565b6133a7816125da565b156133e7576040517f08c379a00000000000000000000000000000000000000000000000000000000081526004016133de90615a0b565b60405180910390fd5b6001600360008473ffffffffffffffffffffffffffffffffffffffff1673ffffffffffffffffffffffffffffffffffffffff16815260200190815260200160002060008282540192505081905550816002600083815260200190815260200160002060006101000a81548173ffffffffffffffffffffffffffffffffffffffff021916908373ffffffffffffffffffffffffffffffffffffffff160217905550808273ffffffffffffffffffffffffffffffffffffffff16600073ffffffffffffffffffffffffffffffffffffffff167fddf252ad1be2c89b69c2b068fc378daa952ba7f163c4a11628f55a4df523b3ef60405160405180910390a46134f1600083836001613007565b5050565b6000808273ffffffffffffffffffffffffffffffffffffffff163b119050919050565b606060006001613527846135e6565b01905060008167ffffffffffffffff81111561354657613545613cac565b5b6040519080825280601f01601f1916602001820160405280156135785781602001600182028036833780820191505090505b509050600082602001820190505b6001156135db578080600190039150507f3031323334353637383961626364656600000000000000000000000000000000600a86061a8153600a85816135cf576135ce615a2b565b5b04945060008503613586575b819350505050919050565b600080600090507a184f03e93ff9f4daa797ed6e38ed64bf6a1f0100000000000000008310613644577a184f03e93ff9f4daa797ed6e38ed64bf6a1f010000000000000000838161363a57613639615a2b565b5b0492506040810190505b6d04ee2d6d415b85acef81000000008310613681576d04ee2d6d415b85acef8100000000838161367757613676615a2b565b5b0492506020810190505b662386f26fc1000083106136b057662386f26fc1000083816136a6576136a5615a2b565b5b0492506010810190505b6305f5e10083106136d9576305f5e10083816136cf576136ce615a2b565b5b0492506008810190505b61271083106136fe5761271083816136f4576136f3615a2b565b5b0492506004810190505b60648310613721576064838161371757613716615a2b565b5b0492506002810190505b600a8310613730576001810190505b80915050919050565b828054828255906000526020600020908101928215613781579160200282015b828111156137805782518290816137709190614fbb565b5091602001919060010190613759565b5b50905061378e919061381a565b5090565b60405180610160016040528060008152602001600073ffffffffffffffffffffffffffffffffffffffff168152602001600073ffffffffffffffffffffffffffffffffffffffff168152602001600081526020016060815260200160608152602001606081526020016060815260200160001515815260200160008152602001600081525090565b5b8082111561383a5760008181613831919061383e565b5060010161381b565b5090565b50805461384a9061472d565b6000825580601f1061385c575061387b565b601f01602090049060005260206000209081019061387a919061387e565b5b50565b5b8082111561389757600081600090555060010161387f565b5090565b6000604051905090565b600080fd5b600080fd5b60007fffffffff0000000000000000000000000000000000000000000000000000000082169050919050565b6138e4816138af565b81146138ef57600080fd5b50565b600081359050613901816138db565b92915050565b60006020828403121561391d5761391c6138a5565b5b600061392b848285016138f2565b91505092915050565b60008115159050919050565b61394981613934565b82525050565b60006020820190506139646000830184613940565b92915050565b600081519050919050565b600082825260208201905092915050565b60005b838110156139a4578082015181840152602081019050613989565b60008484015250505050565b6000601f19601f8301169050919050565b60006139cc8261396a565b6139d68185613975565b93506139e6818560208601613986565b6139ef816139b0565b840191505092915050565b60006020820190508181036000830152613a1481846139c1565b905092915050565b6000819050919050565b613a2f81613a1c565b8114613a3a57600080fd5b50565b600081359050613a4c81613a26565b92915050565b600060208284031215613a6857613a676138a5565b5b6000613a7684828501613a3d565b91505092915050565b600073ffffffffffffffffffffffffffffffffffffffff82169050919050565b6000613aaa82613a7f565b9050919050565b613aba81613a9f565b82525050565b6000602082019050613ad56000830184613ab1565b92915050565b613ae481613a9f565b8114613aef57600080fd5b50565b600081359050613b0181613adb565b92915050565b60008060408385031215613b1e57613b1d6138a5565b5b6000613b2c85828601613af2565b9250506020613b3d85828601613a3d565b9150509250929050565b613b5081613a1c565b82525050565b600061014082019050613b6c600083018d613b47565b613b79602083018c613ab1565b613b86604083018b613ab1565b613b93606083018a613b47565b8181036080830152613ba581896139c1565b905081810360a0830152613bb981886139c1565b905081810360c0830152613bcd81876139c1565b9050613bdc60e0830186613940565b613bea610100830185613b47565b613bf8610120830184613b47565b9b9a5050505050505050505050565b600080600060608486031215613c2057613c1f6138a5565b5b6000613c2e86828701613af2565b9350506020613c3f86828701613af2565b9250506040613c5086828701613a3d565b9150509250925092565b6000602082019050613c6f6000830184613b47565b92915050565b600060208284031215613c8b57613c8a6138a5565b5b6000613c9984828501613af2565b91505092915050565b600080fd5b600080fd5b7f4e487b7100000000000000000000000000000000000000000000000000000000600052604160045260246000fd5b613ce4826139b0565b810181811067ffffffffffffffff82111715613d0357613d02613cac565b5b80604052505050565b6000613d1661389b565b9050613d228282613cdb565b919050565b600067ffffffffffffffff821115613d4257613d41613cac565b5b613d4b826139b0565b9050602081019050919050565b82818337600083830152505050565b6000613d7a613d7584613d27565b613d0c565b905082815260208101848484011115613d9657613d95613ca7565b5b613da1848285613d58565b509392505050565b600082601f830112613dbe57613dbd613ca2565b5b8135613dce848260208601613d67565b91505092915050565b600067ffffffffffffffff821115613df257613df1613cac565b5b602082029050602081019050919050565b600080fd5b6000613e1b613e1684613dd7565b613d0c565b90508083825260208201905060208402830185811115613e3e57613e3d613e03565b5b835b81811015613e8557803567ffffffffffffffff811115613e6357613e62613ca2565b5b808601613e708982613da9565b85526020850194505050602081019050613e40565b5050509392505050565b600082601f830112613ea457613ea3613ca2565b5b8135613eb4848260208601613e08565b91505092915050565b60008060008060008060c08789031215613eda57613ed96138a5565b5b600087013567ffffffffffffffff811115613ef857613ef76138aa565b5b613f0489828a01613da9565b965050602087013567ffffffffffffffff811115613f2557613f246138aa565b5b613f3189828a01613da9565b955050604087013567ffffffffffffffff811115613f5257613f516138aa565b5b613f5e89828a01613da9565b945050606087013567ffffffffffffffff811115613f7f57613f7e6138aa565b5b613f8b89828a01613e8f565b9350506080613f9c89828a01613a3d565b92505060a087013567ffffffffffffffff811115613fbd57613fbc6138aa565b5b613fc989828a01613da9565b9150509295509295509295565b600081519050919050565b600082825260208201905092915050565b6000819050602082019050919050565b61400b81613a1c565b82525050565b61401a81613a9f565b82525050565b600082825260208201905092915050565b600061403c8261396a565b6140468185614020565b9350614056818560208601613986565b61405f816139b0565b840191505092915050565b600081519050919050565b600082825260208201905092915050565b6000819050602082019050919050565b60006140a28383614031565b905092915050565b6000602082019050919050565b60006140c28261406a565b6140cc8185614075565b9350836020820285016140de85614086565b8060005b8581101561411a57848403895281516140fb8582614096565b9450614106836140aa565b925060208a019950506001810190506140e2565b50829750879550505050505092915050565b61413581613934565b82525050565b6000610160830160008301516141546000860182614002565b5060208301516141676020860182614011565b50604083015161417a6040860182614011565b50606083015161418d6060860182614002565b50608083015184820360808601526141a58282614031565b91505060a083015184820360a08601526141bf8282614031565b91505060c083015184820360c08601526141d98282614031565b91505060e083015184820360e08601526141f382826140b7565b91505061010083015161420a61010086018261412c565b5061012083015161421f610120860182614002565b50610140830151614234610140860182614002565b508091505092915050565b600061424b838361413b565b905092915050565b6000602082019050919050565b600061426b82613fd6565b6142758185613fe1565b93508360208202850161428785613ff2565b8060005b858110156142c357848403895281516142a4858261423f565b94506142af83614253565b925060208a0199505060018101905061428b565b50829750879550505050505092915050565b600060208201905081810360008301526142ef8184614260565b905092915050565b61430081613934565b811461430b57600080fd5b50565b60008135905061431d816142f7565b92915050565b6000806040838503121561433a576143396138a5565b5b600061434885828601613af2565b92505060206143598582860161430e565b9150509250929050565b600067ffffffffffffffff82111561437e5761437d613cac565b5b614387826139b0565b9050602081019050919050565b60006143a76143a284614363565b613d0c565b9050828152602081018484840111156143c3576143c2613ca7565b5b6143ce848285613d58565b509392505050565b600082601f8301126143eb576143ea613ca2565b5b81356143fb848260208601614394565b91505092915050565b6000806000806080858703121561441e5761441d6138a5565b5b600061442c87828801613af2565b945050602061443d87828801613af2565b935050604061444e87828801613a3d565b925050606085013567ffffffffffffffff81111561446f5761446e6138aa565b5b61447b878288016143d6565b91505092959194509250565b6000610160830160008301516144a06000860182614002565b5060208301516144b36020860182614011565b5060408301516144c66040860182614011565b5060608301516144d96060860182614002565b50608083015184820360808601526144f18282614031565b91505060a083015184820360a086015261450b8282614031565b91505060c083015184820360c08601526145258282614031565b91505060e083015184820360e086015261453f82826140b7565b91505061010083015161455661010086018261412c565b5061012083015161456b610120860182614002565b50610140830151614580610140860182614002565b508091505092915050565b600060208201905081810360008301526145a58184614487565b905092915050565b600080604083850312156145c4576145c36138a5565b5b60006145d285828601613a3d565b92505060206145e385828601613a3d565b9150509250929050565b60008060408385031215614604576146036138a5565b5b600061461285828601613af2565b925050602061462385828601613af2565b9150509250929050565b600081519050919050565b600082825260208201905092915050565b6000819050602082019050919050565b60006146658383614002565b60208301905092915050565b6000602082019050919050565b60006146898261462d565b6146938185614638565b935061469e83614649565b8060005b838110156146cf5781516146b68882614659565b97506146c183614671565b9250506001810190506146a2565b5085935050505092915050565b600060208201905081810360008301526146f6818461467e565b905092915050565b7f4e487b7100000000000000000000000000000000000000000000000000000000600052602260045260246000fd5b6000600282049050600182168061474557607f821691505b602082108103614758576147576146fe565b5b50919050565b7f4552433732313a20617070726f76616c20746f2063757272656e74206f776e6560008201527f7200000000000000000000000000000000000000000000000000000000000000602082015250565b60006147ba602183613975565b91506147c58261475e565b604082019050919050565b600060208201905081810360008301526147e9816147ad565b9050919050565b7f4552433732313a20617070726f76652063616c6c6572206973206e6f7420746f60008201527f6b656e206f776e6572206f7220617070726f76656420666f7220616c6c000000602082015250565b600061484c603d83613975565b9150614857826147f0565b604082019050919050565b6000602082019050818103600083015261487b8161483f565b9050919050565b7f4461746153657420646f6573206e6f7420657869737400000000000000000000600082015250565b60006148b8601683613975565b91506148c382614882565b602082019050919050565b600060208201905081810360008301526148e7816148ab565b9050919050565b7f4f6e6c79206f776e65722063616e20746f67676c65206163746976652073746160008201527f7475730000000000000000000000000000000000000000000000000000000000602082015250565b600061494a602383613975565b9150614955826148ee565b604082019050919050565b600060208201905081810360008301526149798161493d565b9050919050565b7f4552433732313a2063616c6c6572206973206e6f7420746f6b656e206f776e6560008201527f72206f7220617070726f76656400000000000000000000000000000000000000602082015250565b60006149dc602d83613975565b91506149e782614980565b604082019050919050565b60006020820190508181036000830152614a0b816149cf565b9050919050565b7f4552433732313a20696e76616c696420746f6b656e2049440000000000000000600082015250565b6000614a48601883613975565b9150614a5382614a12565b602082019050919050565b60006020820190508181036000830152614a7781614a3b565b9050919050565b7f4552433732313a2061646472657373207a65726f206973206e6f74206120766160008201527f6c6964206f776e65720000000000000000000000000000000000000000000000602082015250565b6000614ada602983613975565b9150614ae582614a7e565b604082019050919050565b60006020820190508181036000830152614b0981614acd565b9050919050565b7f5072696365206d7573742062652067726561746572207468616e203000000000600082015250565b6000614b46601c83613975565b9150614b5182614b10565b602082019050919050565b60006020820190508181036000830152614b7581614b39565b9050919050565b7f5469746c652063616e6e6f7420626520656d7074790000000000000000000000600082015250565b6000614bb2601583613975565b9150614bbd82614b7c565b602082019050919050565b60006020820190508181036000830152614be181614ba5565b9050919050565b7f4465736372697074696f6e2063616e6e6f7420626520656d7074790000000000600082015250565b6000614c1e601b83613975565b9150614c2982614be8565b602082019050919050565b60006020820190508181036000830152614c4d81614c11565b9050919050565b7f43617465676f72792063616e6e6f7420626520656d7074790000000000000000600082015250565b6000614c8a601883613975565b9150614c9582614c54565b602082019050919050565b60006020820190508181036000830152614cb981614c7d565b9050919050565b7f546f6b656e205552492063616e6e6f7420626520656d70747900000000000000600082015250565b6000614cf6601983613975565b9150614d0182614cc0565b602082019050919050565b60006020820190508181036000830152614d2581614ce9565b9050919050565b7f4174206c65617374206f6e652074616720726571756972656400000000000000600082015250565b6000614d62601983613975565b9150614d6d82614d2c565b602082019050919050565b60006020820190508181036000830152614d9181614d55565b9050919050565b7f4e487b7100000000000000000000000000000000000000000000000000000000600052601160045260246000fd5b6000614dd282613a1c565b91507fffffffffffffffffffffffffffffffffffffffffffffffffffffffffffffffff8203614e0457614e03614d98565b5b600182019050919050565b60008190508160005260206000209050919050565b60006020601f8301049050919050565b600082821b905092915050565b600060088302614e717fffffffffffffffffffffffffffffffffffffffffffffffffffffffffffffffff82614e34565b614e7b8683614e34565b95508019841693508086168417925050509392505050565b6000819050919050565b6000614eb8614eb3614eae84613a1c565b614e93565b613a1c565b9050919050565b6000819050919050565b614ed283614e9d565b614ee6614ede82614ebf565b848454614e41565b825550505050565b600090565b614efb614eee565b614f06818484614ec9565b505050565b5b81811015614f2a57614f1f600082614ef3565b600181019050614f0c565b5050565b601f821115614f6f57614f4081614e0f565b614f4984614e24565b81016020851015614f58578190505b614f6c614f6485614e24565b830182614f0b565b50505b505050565b600082821c905092915050565b6000614f9260001984600802614f74565b1980831691505092915050565b6000614fab8383614f81565b9150826002028217905092915050565b614fc48261396a565b67ffffffffffffffff811115614fdd57614fdc613cac565b5b614fe7825461472d565b614ff2828285614f2e565b600060209050601f8311600181146150255760008415615013578287015190505b61501d8582614f9f565b865550615085565b601f19841661503386614e0f565b60005b8281101561505b57848901518255600182019150602085019450602081019050615036565b868310156150785784890151615074601f891682614f81565b8355505b6001600288020188555050505b505050505050565b7f4e487b7100000000000000000000000000000000000000000000000000000000600052603260045260246000fd5b7f44617461536574206973206e6f74206163746976650000000000000000000000600082015250565b60006150f2601583613975565b91506150fd826150bc565b602082019050919050565b60006020820190508181036000830152615121816150e5565b9050919050565b7f496e73756666696369656e74207061796d656e74000000000000000000000000600082015250565b600061515e601483613975565b915061516982615128565b602082019050919050565b6000602082019050818103600083015261518d81615151565b9050919050565b7f43616e6e6f742062757920796f7572206f776e20646174617365740000000000600082015250565b60006151ca601b83613975565b91506151d582615194565b602082019050919050565b600060208201905081810360008301526151f9816151bd565b9050919050565b600081905092915050565b50565b600061521b600083615200565b91506152268261520b565b600082019050919050565b600061523c8261520e565b9150819050919050565b7f5061796d656e74207472616e73666572206661696c6564000000000000000000600082015250565b600061527c601783613975565b915061528782615246565b602082019050919050565b600060208201905081810360008301526152ab8161526f565b9050919050565b60006152bd82613a1c565b91506152c883613a1c565b92508282039050818111156152e0576152df614d98565b5b92915050565b7f526566756e64207472616e73666572206661696c656400000000000000000000600082015250565b600061531c601683613975565b9150615327826152e6565b602082019050919050565b6000602082019050818103600083015261534b8161530f565b9050919050565b600061535d82613a1c565b915061536883613a1c565b92508282019050808211156153805761537f614d98565b5b92915050565b7f4f6e6c79206f776e65722063616e207570646174652070726963650000000000600082015250565b60006153bc601b83613975565b91506153c782615386565b602082019050919050565b600060208201905081810360008301526153eb816153af565b9050919050565b7f4f776e61626c653a206e6577206f776e657220697320746865207a65726f206160008201527f6464726573730000000000000000000000000000000000000000000000000000602082015250565b600061544e602683613975565b9150615459826153f2565b604082019050919050565b6000602082019050818103600083015261547d81615441565b9050919050565b7f4552433732313a207472616e736665722066726f6d20696e636f72726563742060008201527f6f776e6572000000000000000000000000000000000000000000000000000000602082015250565b60006154e0602583613975565b91506154eb82615484565b604082019050919050565b6000602082019050818103600083015261550f816154d3565b9050919050565b7f4552433732313a207472616e7366657220746f20746865207a65726f2061646460008201527f7265737300000000000000000000000000000000000000000000000000000000602082015250565b6000615572602483613975565b915061557d82615516565b604082019050919050565b600060208201905081810360008301526155a181615565565b9050919050565b7f4f776e61626c653a2063616c6c6572206973206e6f7420746865206f776e6572600082015250565b60006155de602083613975565b91506155e9826155a8565b602082019050919050565b6000602082019050818103600083015261560d816155d1565b9050919050565b7f45524337323155524953746f726167653a2055524920736574206f66206e6f6e60008201527f6578697374656e7420746f6b656e000000000000000000000000000000000000602082015250565b6000615670602e83613975565b915061567b82615614565b604082019050919050565b6000602082019050818103600083015261569f81615663565b9050919050565b7f4552433732313a20617070726f766520746f2063616c6c657200000000000000600082015250565b60006156dc601983613975565b91506156e7826156a6565b602082019050919050565b6000602082019050818103600083015261570b816156cf565b9050919050565b7f5265656e7472616e637947756172643a207265656e7472616e742063616c6c00600082015250565b6000615748601f83613975565b915061575382615712565b602082019050919050565b600060208201905081810360008301526157778161573b565b9050919050565b7f4552433732313a207472616e7366657220746f206e6f6e20455243373231526560008201527f63656976657220696d706c656d656e7465720000000000000000000000000000602082015250565b60006157da603283613975565b91506157e58261577e565b604082019050919050565b60006020820190508181036000830152615809816157cd565b9050919050565b600081905092915050565b60006158268261396a565b6158308185615810565b9350615840818560208601613986565b80840191505092915050565b6000615858828561581b565b9150615864828461581b565b91508190509392505050565b600081519050919050565b600082825260208201905092915050565b600061589782615870565b6158a1818561587b565b93506158b1818560208601613986565b6158ba816139b0565b840191505092915050565b60006080820190506158da6000830187613ab1565b6158e76020830186613ab1565b6158f46040830185613b47565b8181036060830152615906818461588c565b905095945050505050565b600081519050615920816138db565b92915050565b60006020828403121561593c5761593b6138a5565b5b600061594a84828501615911565b91505092915050565b7f4552433732313a206d696e7420746f20746865207a65726f2061646472657373600082015250565b6000615989602083613975565b915061599482615953565b602082019050919050565b600060208201905081810360008301526159b88161597c565b9050919050565b7f4552433732313a20746f6b656e20616c7265616479206d696e74656400000000600082015250565b60006159f5601c83613975565b9150615a00826159bf565b602082019050919050565b60006020820190508181036000830152615a24816159e8565b9050919050565b7f4e487b7100000000000000000000000000000000000000000000000000000000600052601260045260246000fdfea26469706673582212202d716b993d3d0ebd64915997272cd8ea531fec47d6933bc92e03933bf0c1393764736f6c63430008130033",
  "linkReferences": {},
  "deployedLinkReferences": {}
}